:020000040800F2
:10000000E009002061020008352C0008652B00087B
:1000100000000000000000000000000000000000E0
:10002000000000000000000000000000392C000863
:100030000000000000000000372C0008E92C000838
:1000400073020008730200087302000873020008BC
:1000500073020008730200087302000873020008AC
:10006000730200087302000873020008730200089C
:10007000730200087302000873020008730200088C
:10008000730200087302000873020008730200087C
:10009000730200087302000873020008730200086C
:1000A000730200087302000873020008730200085C
:1000B000B9330008C933000873020008730200084E
:1000C00000F002F800F0BDF80CA030C80838241881
:1000D0002D18A246671EAB4654465D46AC4201D180
:1000E00000F0AFF87E460F3E0FCCB64601263342F5
:1000F00000D0FB1AA246AB46334318475C3A0000D7
:100100007C3A0000103A02D378C878C1FAD8520776
:1001100001D330C830C101D504680C6070470000BD
:100120000023002400250026103A01D378C1FBD813
:10013000520700D330C100D50B60704710B56E294F
:1001400002D100F0B7FB10BD702902D100F007FD0D
:1001500010BD662902D103F02FFC10BD652902D124
:1001600003F02AFC10BD672902D103F025FC10BD65
:10017000612902D103F028FC10BD03681B0A01D3DA
:1001800080231943692902D100F05EFB10BD642968
:1001900002D100F059FB10BD752902D100F054FBCB
:1001A00010BD6F2902D100F085FC10BD782902D165
:1001B00000F0C2FC10BDE92902D100F021FC10BD05
:1001C000E42902D100F01CFC10BDF52902D100F099
:1001D00017FC10BDEF2902D100F078FC10BDF82902
:1001E00002D100F0B7FC10BD0368DB0901D3802306
:1001F0001943632902D100F099FB10BD732902D184
:1002000000F09CFB10BDE32902D101F0CEF810BD37
:10021000F32902D101F0D1F810BD002010BD1FB5A7
:1002200001F02AF904000020002103F0AFFB401C7C
:1002300060600020002103F093FBE0601FBD10B55B
:1002400010BD01F0F2F81146FFF7E9FF03F050F995
:1002500001F086FC03B4FFF7F2FF03BC01F0D0FC11
:100260000748804707480047FEE7FEE7FEE7FEE74E
:10027000FEE7FEE704480549054A064B70470000C3
:10028000652D0008C1000008E0030020E0090020FF
:10029000E0050020E0050020FEB5054610460C46AE
:1002A000184373D0AE468C460020AD1A01469C41DF
:1002B00067D36646002701243D46B61A9D4102D306
:1002C00013463A462124654676462F04360C3E43B3
:1002D0002D0CB61A9D4104D3150C1B042B4312049C
:1002E0001034654676462F06360A3E432D0AB61A66
:1002F0009D4104D3150E1B022B43120208346546A0
:1003000076462F0736093E432D09B61A9D4104D380
:10031000150F1B012B431201241D65467646AF07BE
:10032000B6083E43AD08B61A9D4104D3950F9B0015
:100330002B439200A41C65467646EF0776083E43A1
:100340006D08B61A9D411AD392185B41641C16E0E1
:100350000018764665464941B71A9D4101910090C3
:1003600009D36046B11A98418E4684460098019997
:100370000025401C6941DD0752082A435B08641EC2
:10038000E6D57246634603B0F0BDFFE700200146A4
:10039000C046C0462A462346F5E700001CB50C4679
:1003A000064B7B4469460090204600F09CFA0446C8
:1003B0000020694600F0AAFA20461CBD670500002F
:1003C0000FB41CB5084B06AA7B44694600900598FB
:1003D00000F089FA04460020694600F097FA2046AA
:1003E0001CBC08BC04B018474105000070B50C46A1
:1003F0000546012A05D02878800600D5EA69002341
:1004000002E0012305E05B1C934202D2E05C00287D
:10041000F9D1A869E618C01AA861286AC01828622C
:10042000284600F0D7F904E06A682078A968641CBF
:100430009047B442F8D3284600F0E2F970BD0000BE
:10044000F3B50446002081B020622046E168884769
:10045000002872D0252802D06268A168ABE0594F0D
:1004600000267F442046E16888472028054608DBAF
:10047000312D06D2781920380078002801D00643A3
:10048000F0E7B00701D5042086430020E06107466D
:10049000A0612A2D0AD0284602F0EEFF002827D0BE
:1004A000B8000019303D0090856119E00298BA004B
:1004B000121902C8916102902046E1688847012F15
:1004C000054617D1E06900281FDA202086431CE08A
:1004D00000980A21806948430099401930388861A2
:1004E0002046E1688847054602F0C6FF0028EFD1A4
:1004F000012F0AD02E2D08D12046E16888470546F5
:10050000202006437F1C022FC3DBA069002803DAEA
:100510004042A06101200643F00701D0102086432D
:100520006C2D0BD0682D09D04C2D3CD06A2D38D0C5
:10053000742D38D07A2D36D016E040E0E1682F4691
:1005400020468847B842054609D16C2F29D00120A2
:100550008002E168064320468847054604E06C2F88
:100560001DD0FF2001300643002D28D028464138F9
:10057000192803D80120C0020643203520462660F2
:100580002946029A1646FFF7D9FD002810D0012807
:100590000BD0F61DF008C0000830029055E740204F
:1005A000E1E78020D5E70020D3E7361D02964CE72F
:1005B00062682846A1689047206A401C44E7206A88
:1005C000FEBD0000AA35000030B505460B462A46A0
:1005D0001C781078521C5B1C002801D0A042F7D078
:1005E000002C03D0002802D06D1CEFE7284630BD58
:1005F00030B5441C03E00178401C00290DD0810770
:10060000F9D10B4BDD0104C8D11A91432940FAD02E
:10061000001B0A0603D0C01E30BD001B30BD0A04FB
:1006200001D0801E30BD0902FCD0401E30BD00004C
:100630000101010101E004C0091F0429FBD28B075D
:1006400001D50280801CC90700D0027070470029C4
:100650000BD0C30702D00270401C491E022904D3EC
:10066000830702D50280801C891EE3E70022EEE7A3
:100670000022DFE7002203098B422CD3030A8B42BE
:1006800011D300239C464EE003460B433CD400228A
:1006900043088B4231D303098B421CD3030A8B429C
:1006A00001D394463FE0C3098B4201D3CB01C01A6A
:1006B000524183098B4201D38B01C01A5241430935
:1006C0008B4201D34B01C01A524103098B4201D323
:1006D0000B01C01A5241C3088B4201D3CB00C01A90
:1006E000524183088B4201D38B00C01A5241430808
:1006F0008B4201D34B00C01A5241411A00D201462D
:100700005241104670475DE0CA0F00D049420310C5
:1007100000D34042534000229C4603098B422DD314
:10072000030A8B4212D3FC22890112BA030A8B42BC
:100730000CD3890192118B4208D3890192118B420B
:1007400004D389013AD0921100E08909C3098B4290
:1007500001D3CB01C01A524183098B4201D38B01D3
:10076000C01A524143098B4201D34B01C01A524176
:1007700003098B4201D30B01C01A5241C3088B42BB
:1007800001D3CB00C01A524183088B4201D38B00A6
:10079000C01A5241D9D243088B4201D34B00C01A30
:1007A0005241411A00D20146634652415B10104645
:1007B00001D34042002B00D54942704763465B108D
:1007C00000D3404201B50020C046C04602BD70477C
:1007D0007047704770B5044685690068C10601D549
:1007E000302600E02026C00707D070BD6268304682
:1007F000A1689047206A401C20626D1EF6D570BD2E
:1008000070B5044685690078C00707D170BD62687D
:10081000A16820209047206A401C20626D1EF6D5FA
:1008200070BD09684A0501D540B27047C905FCD5BD
:1008300000B2704709684A0501D5C0B27047C905C2
:10084000FCD580B270470000F7B500257529106807
:10085000009914A611D0FFF7E4FF002802DA404205
:1008600011A608E0009909688A0701D50FA602E0E1
:10087000490704D50EA6012501E0FFF7DBFF009F25
:100880000024243704E000F0BCFD30313955641CED
:100890000028F8D12B4632462146009800F0A9F9ED
:1008A000FEBD0000000000002D0000002B00000035
:1008B0002000000011680268006A530501D5087025
:1008C00009E0D30501D5088005E0130602D5C2175B
:1008D00005C100E0086001207047000001694A1C62
:1008E00002610878704700B58FB002910021059130
:1008F0000549019379440391114604906846FFF736
:100900009FFD0FB000BD0000E5FFFFFF0A681070FB
:10091000521C0A60704710B54369002B02D0C046D4
:10092000C04601E0FFF762FD012010BD12780146CC
:1009300024310A7000224A700122ECE7116800227B
:10094000D243E8E7F7B50446154686B02B4878440D
:10095000002703C83E460090019111E007986A46BF
:100960007100415A02A800F02CFD411C07D02178EB
:10097000890603D5E269391891420ED83F18761CD2
:100980002078800602D5E069B84206DDAE42E5DB9C
:1009900007987100405A0028E0D1A069C01BA061EF
:1009A0002046FFF717FF154878445A3803C80090CF
:1009B0000020019116E041006A460798415A02A8BA
:1009C00000F0FFFC0590401C0AD0002505E062689D
:1009D00002A8A168405D90476D1C05988542F6D33A
:1009E0000498401CB0420490E5DB206AC0192062E4
:1009F0002046FFF705FF09B0F0BD0000D23000002F
:100A0000F7B5D21D0025D20815A6D200F52905CAD2
:100A100011D0002A05DA00214042914111A60A4670
:100A200008E0009909688B0701D50FA602E0490785
:100A300001D50EA601251146009F0024243704E0AD
:100A400000F09AF830323A55641C02460A43F7D156
:100A50002B4632462146009800F0CBF8FEBD000040
:100A6000000000002D0000002B000000200000000E
:100A700070B504460021243408E05507D2086D0FF4
:100A8000303565545D072A43DB08491C15461D4374
:100A9000F3D10468002310A2250708D5A40601D4C9
:100AA000002904D0C46901230CA2641EC46100F0B3
:100AB000A0F870BD10B5044621461068FFF7BAFED5
:100AC000002302462046FFF7D3FF10BDD21DD108F8
:100AD000C9000CC9CCE70000000000003000000095
:100AE000F8B50F460188090502D5224C7C4402E086
:100AF000204C7C440E3405460021243508E01607BE
:100B00001209360FA65D6E541E0732431B09491C9D
:100B100016461E43F3D1224604780023240705D548
:100B2000702F06D0002901D00223113200F061F8A5
:100B3000F8BD01231032F9E770B504460D46214691
:100B40001068FFF777FE0023024629462046FFF78C
:100B5000C7FF70BDD21DD308DB000CCBC0E730B49B
:100B6000036820241268234303600823C36130BC58
:100B70000023B5E73C2F00000B4670B502468907FD
:100B80008008084319469D08141AA9412509080739
:100B9000054308092C194841250A01060D43010A9D
:100BA0002C194141200C0D0428430D0C00194D4116
:100BB000002140194D41C00869070843E908840F26
:100BC0008D002543840024184D4124196D41121BCA
:100BD000AB4107E00925ED432C1152196341002474
:100BE000401C61411C460A250026551BB441F1D228
:100BF00070BDFFB504460D4681B0243000902168D9
:100C0000880604D51022E0699143216000E00120AC
:100C1000A84201DD471B00E000270498A1697A196A
:100C20001018081AA0612078C00602D42046FFF7E9
:100C3000D1FD002608E003986268A168805D9047B6
:100C4000206A401C761C206204988642F3DB2078E0
:100C5000C0060AD52046FFF7BDFD06E06268A16820
:100C600030209047206A401C206238467F1E0028B2
:100C7000F4DC07E000986268A168405D9047206A54
:100C8000401C206228466D1E0028F3DC2046FFF73A
:100C9000B7FD2078000602D5022005B0F0BD012086
:100CA000FBE700007047FFB50C461E468FB003CA35
:100CB000089009914F007D0D00D16D1E002108465E
:100CC0000020C0460321099A89050840002A03DA5A
:100CD0008200801840080840800D01280A9002DD3B
:100CE0000020C0430A90089807430DD0F048F1490E
:100CF000281848430714189800281DD07542291E4B
:100D00001DDD0A9842421BE01898012802D00020FD
:100D1000302104E00020F24305E02154401CB042A1
:100D2000FBDB30460022189B002121540F998B6079
:100D30000A60486013B0F0BDBD1B6D1CDFE70A9A66
:100D4000002900DA69420BA800F0DEFB0BAB07CBF1
:100D500003AB07C30899099800F042FC6B4607C330
:100D60000146D5480918002D00910BDDD2490398A2
:100D70000A9A49424018002303A90390684600F0EC
:100D80009FFE08E003990A9A0023081803A903901C
:100D9000684600F03FFE6B4607C30004000C03D01A
:100DA0000020C043410800E01046189A002A03D0F2
:100DB0000022009215461EE0751E05D4FFF7DCFEEA
:100DC000303262556D1EF9D501220843079602D0D4
:100DD00000227F1C04E02078302801D100227F1EF1
:100DE000002A069787D01EE0112D07DAFFF7C4FE10
:100DF000303262556D1C02460A43F5D1084303D0D8
:100E00000098002819D00EE00021681E05E0235C40
:100E1000625C63542254401E491C8142F7DBA81BCC
:100E2000401E07950690079A18990020A0540F9825
:100E3000079B069A81600CC07CE711260020189061
:100E400059E7D21DF0B50D460446D10893B0C9004C
:100E500003C90C900D9102F0D7FA02460D98C00F0D
:100E600001D02D2007E02068810701D52B2002E06A
:100E70004007C00F4001032A0F9001D0072A05DB6D
:100E800003462946204600F0FBFA0EE12078800652
:100E900001D5E76900E006272846652D04D06628BD
:100EA00014D0672D69D12DE00020112F009001DBB7
:100EB000112300E07B1C0CAA03A910A8FFF7F3FE86
:100EC0001199002610987D1C0E9142E001203B46AE
:100ED0000CAAC0070B900120009003A910A8FFF7EF
:100EE000E2FE119D12981099002600280E9501D15E
:100EF000781C0D18781B02D446427D1C761EE81B18
:100F000000903AE0012F00DA01270020112F009015
:100F100001DD112300E03B460CAA03A910A8FFF74E
:100F2000C2FE11993D46109800260E9121780907BE
:100F30000BD40E99A94200DA0D4603A9012D04DD58
:100F40004A19203AD27F302A06D0B84201DA011D70
:100F500004DA012100910FE06D1EEFE7002802DCAA
:100F600086192D1A03E0411CA94200DD0D46801BA5
:100F7000401C00900120C0070B902078000705D48A
:100F80000098A84202DB0020C04300906946002080
:100F9000C8720B98012102AF0337C907884225D0D8
:100FA000022010902B2011900B9800280BDA404261
:100FB0000B902D20119006E00B9800F022FA3031B2
:100FC0007F1E0B9039701099481E00291090F3DC99
:100FD0000B980028F0D111987F1E387020880005EA
:100FE00001D5452000E065207F1E387001A8C01B98
:100FF000C01D0B900F98002800D0012041190098C7
:10100000C01709180B980818A169081A401EA0619A
:101010002078C00602D42046FFF7DCFB0F9800289A
:1010200005D06268A1689047206A401C2062207841
:10103000C00625D52046FFF7CDFB21E0002E07DBBB
:101040000E98B04204DD03A86268805DA16802E0EA
:101050006268A16830209047206A761C401C20629C
:101060000098401E002800900AD100F005FAC068E0
:1010700062680168405CA1689047206A401C206259
:1010800028466D1E0028D9DC07E062683878A16820
:101090007F1C9047206A401C20620B99481E002943
:1010A0000B90F2DC2046FFF7ABFB032042E600008A
:1010B00001FCFFFF104D0000E1DFFFFFD21DF0B586
:1010C00004460D46D0088DB0C0004668076831461A
:1010D000384602F099F90246F00F01D02D2307E0BF
:1010E0002068810701D52B2302E04007C00F430190
:1010F0006846002B037001D0012000E00020032A85
:101100000A9001D0072A04DB2946204600F0B8F9EE
:101110002DE12078800601D40D2500E0E5697000FE
:10112000400D0D2D01904BDA300D00210B9008463B
:101130000020C046032189050840002E05DA820000
:101140008018C20F1018401008408015012801DDDA
:101150000020C043A9000023182906D39C460A4654
:101160000123183A1B07D34003E001221205CA40AD
:1011700094460C31202902D33A46203900E0324609
:101180008A40002802DD002A06D119E0002817D184
:101190000121C9078A4213D3194663467F185E416D
:1011A000002806D10120C007824202D108468743A9
:1011B0009E430B98310D814202D00198401C019052
:1011C0002088000502D57149794402E06F497944CD
:1011D00019396B460A9830221A540A980A7C401C26
:1011E0001A54401C0A900198002801DC302000E0CD
:1011F00031201872019A0120002A02D0644BD218C3
:1012000004E072003A4302D0614A521C0192002D60
:1012100002DC2278120703D56A462E205072022083
:101220000022864694460CE032033601120F6D1EF2
:101230008B5C02AA13546246521C401C9446052A39
:1012400001DA002DF0DC002202AE08E03B0F3F0186
:10125000CB5C521C6D1E3354401C082A01DA002D51
:10126000F4DC23689A0601D511E0401E704504DDC8
:101270003218203AD27F302AF7D0002807DD321802
:10128000203AD27F2E2A02D11A0700D4401E002D08
:1012900003DD3E223254401C6D1E497C31540199BD
:1012A000401C002906DA2D21471C31540198404288
:1012B000019003E02B21471C315401987D21C90086
:1012C000884206DBFFF7E0F93030F0557F1C0191D2
:1012D00001E0642808DB01986421FFF7D5F930307C
:1012E000F0557F1C019101E00A2806DB01980A21D4
:1012F000FFF7CAF93030F0557F1C01980A21FFF73B
:10130000C3F93031F1550A98A1697F1C7A19101878
:10131000081AA0612078C00602D42046FFF75AFAC6
:10132000216A6E460A980818206204E062683078E4
:10133000A168761C90470A98401E0A90401CF5D17F
:101340002078C00602D52046FFF744FA02AE09E035
:101350003078761C3E280DD06268A1689047206ADC
:10136000401C20627F1EF3D22046FFF749FA0DB0E1
:101370000320F0BD206A4019206203E06268A16882
:10138000302090476D1EEDD3F8E700009B28000049
:1013900001FCFFFF10B54369002B02D0C046C046D8
:1013A00001E0FFF7CFFA012010BD12880146243179
:1013B00082840022C2840122ECE711680022D24319
:1013C000E8E770B516460C46054600F04DF8036890
:1013D000FF200230C05C012807D0FF2C0ED8185D1A
:1013E00000280BD001202C7070BDFF3332462146FF
:1013F00008331868C3182846984770BD0020C043BA
:1014000070BD01468008081A02091018020A101857
:10141000020C1018C008820012185200891A01E04C
:10142000401C0A390A29FBD27047754600F0A0FB20
:10143000AE46050069465346C008C000854618B050
:1014400020B5FEF717FF60BC00274908B646002606
:10145000C0C5C0C5C0C5C0C5C0C5C0C5C0C5C0C564
:10146000403D49008D46704710B500F005F8001D5D
:1014700010BD00BF19250000004870479C030020E4
:10148000F8B51F46044601230068DB020326014627
:101490001840072A05DB002801D017A506E017A58C
:1014A00004E0002801D016A500E016A51020814315
:1014B0002160A069C01E002FA06101D0401EA06164
:1014C0002046FFF787F9002F09D038466268A168E7
:1014D0009047206A401C2062C01C206206E0206AFF
:1014E000FAE762682878A1686D1C9047761EF8D2EA
:1014F0002046FFF785F9F8BD4E414E006E616E0043
:10150000494E4600696E6600F7B516468AB0334804
:1015100078446C4603467C33C06F5A689B680DC4A0
:101520002E487844763003AC0DC80DC43720C00176
:10153000081837211B30FFF7A7F805460C46803DF9
:101540001B3C02D56442012000E0002000270990E6
:1015500010E0E0070CD00C20204978437944324653
:101560004C3941186846012300F054FA6B4607C312
:1015700064107F1C002CECD1184F7F442E3F16E0E6
:10158000E80712D02001C0190EC8069108930792EF
:101590000068F04201D1981908903246012306A94B
:1015A00003A800F037FA03AB07C36D10641C002DCD
:1015B000E6D10998002806D032466946012303A8DF
:1015C00000F07EFA05E001233246694603A800F0E8
:1015D00021FA0A9B07C30DB0F0BD0000682500008A
:1015E000034640000A4610B5400D0BD00121C90743
:1015F0000F24A40200191C0364082143540D214345
:10160000D20207E000210120F2E7D40F4900214374
:101610005200401E0029F8DADB0FDB07184310BD2B
:10162000FFB50D46144685B04868516801F0D4FEF8
:1016300000910190A868A16801F0CEFE029103908C
:10164000A868616801F0C8FE029A121882420292EC
:1016500001D2012000E00020019A0B18D2180028C6
:10166000019202D08A4202D903E08A4201D20120CB
:1016700000E000200099081800906868A16801F057
:10168000ABFE029A12188242029201D2012000E0BF
:101690000020019A0B18D2180028019202D08A4229
:1016A00002D903E08A4201D2012000E00020009923
:1016B000081800902868216840004900400849083F
:1016C0004018FA49471814E001994000C90F08432F
:1016D0000090019802994000C90F084301900298B8
:1016E00003994000C90F08430290039840007F1EF1
:1016F000039000980028E7DA0898002801D0EC4E03
:1017000000E00026B74201DA012000E000200028B6
:1017100004902AD0F71BF806C00E15D0029B20219A
:10172000091A039A8B401A430392029A019BC24002
:101730008B401A430292019A009BC2408B40009951
:101740001A430192C14000917B110DD06F460320D6
:10175000C11A03D500218200B95003E08A0081003C
:10176000BA587A50401EF3D537460398029900289C
:1017700000D00120014308980291002808460CD0AF
:10178000002800D001200199019A49050843012150
:10179000D20AC902D202019200E001210E9B01226D
:1017A000D207012B02D0002B03D013E0002807D171
:1017B00020E0904204D890420CD1019B0B4209D00A
:1017C000019B5918019105D10099491C009101D143
:1017D0007F1C009200280DD0102108460020C04632
:1017E0000498002806D00F98002803D00821084646
:1017F0000020C04628682168019B009A4840C10F1C
:101800000598C90739430EC009B0F0BDFFB587B0D0
:10181000099A0898089953689268406889689646BA
:101820000022039317469446089A12685300099AB7
:101830005B081268520052089A1A9E4BD4180A9AF2
:10184000002A01D0352200E0402206920022012326
:1018500015460492DB07059324E0002D05D175465B
:101860000346039E4D1BB34109D375466646039B51
:10187000491B049D9841059B7519AC465F41634621
:101880003B4308D0059B049EDD0776082E435B088A
:101890000496059301E0521E641EC50FED0749181A
:1018A0004041521C069B9A42D7DB002D04D175465D
:1018B000039A6B1A824101D203200CE0039A0B4673
:1018C0006B404240134303D0014303D0012002E0A8
:1018D000022000E000206146019100210097029162
:1018E0000A99002905D0614640020143704B0191DD
:1018F00002E08007002302909C4201DA012000E010
:10190000002007003AD01A1BD006C00E15D0029D49
:101910002021019C091AC5408C402543029C8C4023
:1019200000D001242543019C0295009DC4408D40B8
:1019300000992C430194C140009154111DD06D4673
:101940000221002202290CD10320001B07E00028FD
:1019500004DB8600AE59002E00D00122401C032873
:10196000F5DB081B02D588002A5004E080002858C7
:1019700010438A00A850491EE3D51C460A98002847
:1019800002980CD0002800D001200199019A490545
:1019900008430121D20AC902D202019200E00121CA
:1019A000109B0122D207012B02D0002B03D013E0A1
:1019B000002807D11FE0904204D890420CD1019B2F
:1019C0000B4209D0019B5918019105D10099491C7E
:1019D000009101D1641C009200280CD0102108460F
:1019E0000020C046002F06D01198002803D00821FF
:1019F00008460020C04608980999019A009B006893
:101A000009684840C10F0798C907214382600AC08E
:101A10000BB0F0BD00B585B0019300920A460146B7
:101A2000002302A8FFF7FCFD02A807C805B000BD0F
:101A3000FFB50A461F4685B007990193012300911F
:101A4000014602A8FFF7ECFD02990398049ECA0F15
:101A50004900D20700920F22490892028C1A0021F5
:101A6000002800DB0C46450013486D08844214D35F
:101A7000079A002A04DA441E0026104DF64302E0BD
:101A800004460D460E46102108460020C046002F91
:101A900003D0042108460020C0462005E90A084377
:101AA000009908436905F20A1143ADE602C0FFFF41
:101AB000013C0000FF3F0000FF070000FFFFFF7F29
:101AC00000B585B0019300920A460146002302A8A2
:101AD000FFF79CFE02A807C8A8E7FFB50A461F4605
:101AE00085B00799019301230091014602A8FFF7F1
:101AF0008DFE02990398049ECA0F4900D2070092F6
:101B00000F22490892028C1A0021002800DB0C46A3
:101B1000450011486D08844214D3079A002A04DA5C
:101B2000441E00260D4DF64302E004460D460E46C7
:101B3000102108460020C046002F03D0042108468B
:101B40000020C0462005E90A0843009908436905BA
:101B5000F20A114358E60000FF070000FFFFFF7F75
:101B600010B50446C046C0462046FEF773FB10BDC4
:101B7000004870477C030020024670B50A43920774
:101B80002AD11E4DEE0104C808C9541B94433440A9
:101B900017D0D0B2D9B2401A2106014310D190B269
:101BA00099B2401A210401430AD110021902000A15
:101BB000090A401A2102014302D1100E190E401ADF
:101BC00070BD9A42DFD010BA19BA884201D90120FB
:101BD00070BD0020C04370BD02780B78401C491CCA
:101BE000002A09D09A4207D102780B78401C491C80
:101BF000002A01D09A42EFD0D01A70BD0101010134
:101C000001491820ABBEFEE726000200704730B540
:101C1000014620314B780022022B04D00423836339
:101C20000A70012030BD03681C680E25AC431C609F
:101C300003681C68640864001C600123056C1C4672
:101C4000C06BAC4044604B700A70002030BD70B572
:101C50000024014620314A78022A03D004218163FE
:101C6000012416E0026813680E25AB431360026876
:101C700013685B085B0013600122056C1346AB40E0
:101C8000C56B6B604A7000220A70416B002900D05E
:101C90008847204670BD000070B5044600F0EEF89D
:101CA0000546601C02D004480078241800F0E6F8CD
:101CB000401BA042FAD370BD04000020F8B50023F9
:101CC00003240125BFE02E469E40B44632407CD01E
:101CD0000E79B607B60F012E01D0022E17D18668F5
:101CE0002746B6465E00B74000967646BE43B646E7
:101CF000CF68009EB74076463743876046686746A0
:101D0000BE430F79FF06FF0F9F40374347600E79B0
:101D1000F643B6070ED0C6682746B4465E00B64600
:101D2000B7406646BE43B4468F687646B7406646BF
:101D30003743C7600E79B607B60F022E14D1DE08FE
:101D4000B60036180096366A5F07B446FE0E0F27B7
:101D5000B646B7406646BE43B4460F697646B740BE
:101D600066463743009E376206682746B4465E00E3
:101D7000B646B7406646BE430F79B446BF07BF0FAD
:101D80007646B7406646374307604E68B603B60FDF
:101D900058D0304FBE692E43BE61BE699F08F6071A
:101DA000F60F2D4EBF00BE190096B6680F27B44639
:101DB0009E07360FB646B7406646BE430927FF0664
:101DC000B446B84202D1002715E03BE0234FB842A9
:101DD00001D101270FE0224FB84201D102270AE0CA
:101DE000204FB84201D1032705E01F4FB84201D16F
:101DF000042700E005277646B74066463743009E35
:101E0000B7601A4EB6684F689643FF0200D5164376
:101E1000164FBE60FE684F689643BF0200D516435A
:101E2000124FFE607E684F689643BF0300D516438D
:101E30000E4F7E603E684F689643FF0300D5164301
:101E40000A4A16605B1C0A681646DE4000D03AE774
:101E5000F8BD0000001002400000014000040048EE
:101E600000080048000C0048001000480004014031
:101E7000002A01D081617047816270470148806803
:101E80007047000004000020024881680278891829
:101E9000816070470400002010B5064801681022D8
:101EA00011430160032000F007F800F027F800203C
:101EB00010BD00000020024070B504460D4D7D208D
:101EC0002978C000FEF7D6FB01460B480068FEF7F4
:101ED000D1FB00F095FB002809D1042C07D2002289
:101EE0002146401E00F02AF800206C6070BD0120E1
:101EF00070BD0000040000201000002008B5084854
:101F00008169012211438161816911400091C26997
:101F100001040A43C261C0690840009008BD000086
:101F200000100240002805DBC106C90E01208840D0
:101F3000014908607047000000E100E010B501F0C1
:101F400079FA10BDF8B504460068434DC00352D578
:101F5000E8690026C00007D4E96928040143E96163
:101F6000E9690140012600913C480168C90510D487
:101F70000168821511430160FFF780FF074604E006
:101F8000FFF77CFFC01B642824D834480068C005D4
:101F9000F6D5286A03273F02384020D061683940CF
:101FA00081421CD0286A2A6AB843012109040A43E5
:101FB0002A622A6A8A432A622862C0070FD0FFF782
:101FC0005DFF009008E0FFF759FF0099411A24488F
:101FD000814201D90320F8BD286A8007F3D5286A19
:101FE0006168B84308432862002E04D0E8690121E3
:101FF00009078843E8612078C00705D0286BA168ED
:1020000080088000084328632078800706D5286B65
:10201000032109048843E168084328632078800687
:1020200005D5286B1021884321690843286320685F
:10203000800305D5286B80218843A1690843286364
:102040002088400505D5286B4021884361690843F5
:1020500028630020F8BD000000100240007000401E
:1020600088130000F8B50F4606005ED03C4D286886
:10207000C007C00FB84209D2286840084000384362
:1020800028602868C007C00FB8424ED13068354C70
:1020900081070CD5400704D5606807210902084371
:1020A00060606068F0218843B16808436060307800
:1020B000C0072BD07068012810D0022810D0032848
:1020C00011D02168890700292FDA61688908890001
:1020D00001436160FFF7D2FE009010E0216803E049
:1020E00021688901EFE7616B8903ECE7FFF7C6FE22
:1020F0000099411A1C48814201D90320F8BD60684B
:102100000C210840716889008842EFD12868C00717
:10211000C00FB8420BD928684008400038432860F7
:102120002868C007C00FB84201D00120F8BD307840
:10213000400706D56068072109028843F168084313
:10214000606000F027F86168084A0906090F515CD1
:10215000C840074908600320FFF7AEFE0020F8BD25
:10216000002002400010024088130000F8390008E7
:10217000100000200448054900684968044A4905E0
:10218000490F515CC8407047100000200010024009
:10219000083A000870B5154A51680C200B460340F8
:1021A0001348042B05D0134D082B03D00C2B00D162
:1021B000284670BD8B02104C1B0FE45CD26A0E4B9C
:1021C0001207120F1033C9039A5C890F022901D03C
:1021D000032901D0002301E0002328460021FEF757
:1021E0005BF8214601F0F8F870BD000000100240D5
:1021F00000127A00006CDC02D8390008FEB5040039
:1022000070D02078F94EFA4DC00748D068680007B2
:10221000800F01281FD068680007800F022804D1B2
:102220006868C003800F022815D06168012919D0A1
:1022300001208004002901D0052917D02968B14365
:102240002960296881432960606800281BD0FFF756
:1022500015FE074613E02868800320D56068002833
:10226000CED01CE0286830432860EDE729680143A0
:102270002960F7E7FFF702FEC01B642870D82868C2
:102280008003F7D50BE0FFF7F9FD074604E0FFF701
:10229000F5FDC01B6428F1D828688003F7D42078A6
:1022A00080073FD568680007800F14D06868000772
:1022B000800F022804D16868C003800F01280AD06B
:1022C000E068002828681ED0012108432860FFF735
:1022D000D5FD07460CE0286880070CD5E06801288A
:1022E00000D108E080E1FFF7C9FDC01B0228C5D876
:1022F00028688007F7D52868F82188432169C90034
:10230000084328600EE0400840002860FFF7B6FD53
:10231000074604E0FFF7B2FDC01B0228AED82868CC
:102320008007F7D42078000723D5E0690028686A81
:102330000FD0012108436862FFF7A0FD074604E0C3
:10234000FFF79CFDC01B022898D8686A8007F7D564
:102350000FE0400840006862FFF790FD074605E087
:10236000C3E0FFF78BFDC01B022887D8686A80078F
:10237000F7D4207804274007002861DA0020019074
:10238000E869C00008D4E969B8060143E961E96970
:10239000014001200091019096480168C90511D4BF
:1023A0000168821511430160FFF768FD009005E0A8
:1023B000FFF764FD0099401A642898D88D4800689A
:1023C000C005F5D5A06801280AD0002801D005284D
:1023D00011D0286A400840002862286AB84302E009
:1023E000286A012108432862A068002812D0FFF75C
:1023F00045FD00900AE0286A38432862F0E7FFF7BD
:102400003DFD0099411A7C4881426ED8286A8007B8
:10241000F5D50DE0FFF732FD009006E0FFF72EFD49
:102420000099411A744881425FD8286A8007F5D420
:102430000198002804D0E969012000078143E9617F
:102440002078C00635D5606901280CD0401D686B26
:1024500024D038436863686B400840006863FFF726
:102460000DFD074622E0686B38436863686B012105
:1024700008436863FFF702FD074604E0FFF7FEFC30
:10248000C01B022831D8686B8007F7D5686BF8212C
:102490008843A169C900084368630AE0B8436863D8
:1024A000F4E7FFF7EBFCC01B02281ED8686B80071F
:1024B000F7D42078800637D568680007800F032896
:1024C00014D068680007800F022804D16868C00330
:1024D000800F03280AD0206A0028686B16D030438A
:1024E0006863FFF7CBFC06460CE062E0686B800394
:1024F0001AD5206A012877D116E0FFF7BFFC801BB0
:10250000022856D8686B8003F7D50DE0B0436863A6
:10251000FFF7B4FC064604E0FFF7B0FC801B02287E
:1025200047D8686B8003F7D4606A002866D0696872
:102530000907890F022942D0012636060228286899
:1025400005D0B0432860FFF799FC044633E0B04360
:102550002860FFF793FC074604E0FFF78FFCC01BE1
:10256000022826D828688001F7D4E86A216B000980
:1025700000010843E862A16AE06A084369687B22B7
:10258000D203914308436860286830432860FFF70E
:1025900075FC044604E0FFF771FC001B022808D814
:1025A00028688001F7D529E0FFF768FC001B0228A6
:1025B00001D90320FEBD28688001F5D41EE0012862
:1025C000F8D06868E96A0322D203A36A02409A42FB
:1025D0000AD10907226B090F914205D10F21890405
:1025E0000840E16A884209D00120FEBD00000100D8
:1025F0000010024000700040881300000020F4E743
:10260000094910B5401E884201D9012010BD074C70
:1026100060610321081F00F00DFF0020A06107206A
:102620002061002010BD0000FFFFFF0000E000E07F
:1026300010B5044680300068202801D0022010BD6B
:1026400000290BD0002A09D00123A0681B0398425F
:1026500006D12069002803D1C80701D0012010BD90
:102660000120206600206066204600F0FBFD01008E
:1026700003D1206E012802D00121084610BD206838
:1026800010220262EFF31080012383F31088236885
:102690001C6814431C6080F31088EEE710B50068D6
:1026A0000649884208D1064901200870FF22F53208
:1026B00004490548FFF7BCFF10BD0000004800407A
:1026C0000000002014000020F40200207047704732
:1026D000F8B502680446D06911689368A44D0646AF
:1026E0002E4025468035002E71D0A24FDE07F60F12
:1026F0000F4037437ED0C70706D0CF0504D501274A
:1027000017626A683A436A60820708D5DA0706D01A
:10271000276802223A626A6804273A436A604207DD
:1027200008D5DA0706D0236804221A626A680223F1
:102730001A436A60020709D520220A40324305D0B5
:10274000236808221A626B6813436B60020509D57F
:102750004A0107D501222368D2021A626A6820233F
:102760001A436A606A68002A39D0800606D588064E
:1027700004D5A16E002901D02046884768682168E9
:102780008968490602D4282108422DD0204600F04D
:10279000BBFB21688868400622D5EFF31080012238
:1027A00082F310888A6840239A438A6080F31088F5
:1027B000606F002814D070494163606FFFF747FADB
:1027C00000280CD0606F416B08E000E012E0860644
:1027D00010D58E060ED5A16EAEE020468847F8BD16
:1027E0002046FFF774FFF8BD2046FFF770FF00207A
:1027F0006860F8BD266E012E7ED1C6067CD5CE0659
:102800007AD5102313622268906826464006403627
:10281000002848DA616F086840680004000CE8D0BE
:10282000378B8742E5D970838869202834D0EFF34D
:102830001080012181F3108811681F01B9431160D4
:1028400080F31088EFF31080012181F31088216854
:102850008A68520852008A6080F31088EFF3108073
:10286000012181F3108821688A684027BA438A6071
:1028700080F310882020286000202066EFF310806D
:10288000012181F3108821680A689A430A6080F365
:102890001088606FFFF7BBF902206066308B718B88
:1028A000401A81B234E0308B718B401A81B2708B48
:1028B00000289ED000299CD0EFF31080012686F3DB
:1028C00010881668FF272137BE43166080F31088F2
:1028D000EFF31080012282F3108822689668760850
:1028E0007600966080F31088202028600020206603
:1028F000A066EFF3108000E00EE0012282F3108862
:10290000226815689D43156080F310880220606678
:102910002046FFF7C3FEF8BDC50208D55B0206D509
:102920000120000510622046FFF7D0FEF8BD030627
:1029300006D50B0604D5E16E002900D04DE7F8BDA1
:102940004006FCD54806FAD52046EFF31081012356
:1029500083F31088146840239C43146081F310882B
:102960002021C1670021C16600F0FBF8F8BD00001E
:102970000F08000020010004F52E000810B5040027
:1029800003D0E06F002802D007E0012010BD002135
:1029900078200155204600F027F82420E0672068C1
:1029A0000168490849000160204600F0ABFB01289E
:1029B000ECD0606A002802D0204600F0D4F92068EC
:1029C00041680922D20291434160206881682A222D
:1029D0009143816020680168012211430160204613
:1029E00000F026FA10BD000070B586B00446142130
:1029F0006846FDF73DFE264E216800222548022349
:102A000003240125B1421DD1C66919040E43C661D4
:102A1000C6690E40059646690E43466140690193BA
:102A2000084005900C20009002AE34C6092069468B
:102A3000C006FFF743F9002211461C20FFF77EFA7B
:102A40001C2021E0144EB14220D1C6690121890425
:102A50000E43C661C6690E400596466949000E439D
:102A60004661406901930840059003208002009070
:102A700002AE34C669460948FFF720F90022114624
:102A80001D20FFF75BFA1D20FFF74CFA06B070BD62
:102A90000044004000100240004800400008004888
:102AA0007047FFB50446C06F83B017460D46202817
:102AB00002D0022007B0F0BD002D0BD0002F09D0AE
:102AC0000120A1680003814206D12069002803D1BA
:102AD000E80701D00120EDE70021842001512120E9
:102AE000E067FFF7CBF926464036019037827782C0
:102AF0000120A1680003814202D12069002802D090
:102B00002F46002511E000270FE0002280212046FB
:102B100000F00CFC002815D1002F17D02168387860
:102B200008857F1C708A401E7082708A019B002875
:102B300006980090E9D100224021204600F0F6FBE3
:102B400000280AD02020E0670320B3E72888216806
:102B5000C005C00D0885AD1CE4E72020E06700201B
:102B6000A8E77047FEE7000030B587B0142168463B
:102B7000FDF77EFD11484269012149040A43426183
:102B800042690A400592426989000A4342614069EC
:102B90000B4D0840CC110590002221462846FFF736
:102BA00067F9002101200291039101900094694688
:102BB0002846FFF783F807B030BD00000010024040
:102BC0000008004810B50C480A490160E12149029B
:102BD000416000218160C16001618161C1610C229D
:102BE000016242614162FFF7C9FE002801D072B65E
:102BF000FEE710BD004400406C02002010B50C48F8
:102C00000A490160E1214902416000218160C160FF
:102C100001618161C1610C22016242614162FFF781
:102C2000ADFE002801D072B6FEE710BD004800409E
:102C3000F4020020FEE770477047000070B50E46B2
:102C400002461DA11D48FDF7BBFB1C491CA000F05E
:102C50001BFC1D4C002525701848FDF7C9FC1749C1
:102C600082B27D230846DB00EC30FFF71AFF3220EA
:102C700000E00120FFF710F820780028F9D0314655
:102C80001248FDF7A1FC002820780DD001280AD1B8
:102C90000E490FA000F0F8FBFF21F5310B48FDF7BE
:102CA000E7FC2570002070BD0128FCD107490BA06E
:102CB00000F0EAFB012070BD25730000080200202F
:102CC0005458203A202573000000002014000020F2
:102CD000525831203A20257300000000525832200B
:102CE0003A2025730000000010B5FFF7CDF810BDA5
:102CF00030B599B034216846FDF7BAFC00240D9434
:102D00000E940F941C2111A81094FDF7B1FC02251C
:102D1000012003901020099504900095C0020A90AC
:102D200040010B900C946846FFF768FA002801D028
:102D300072B6FEE707200D900F9401210E951094B6
:102D40000DA8FFF78FF9002801D072B6FEE711A891
:102D500011951494FFF7F6F8002801D072B6FEE73B
:102D600019B030BD704710B5818CC90707D0016814
:102D70004A6801235B049A43836A1A434A60818C40
:102D8000890707D501684A6801231B049A43C36A6F
:102D90001A434A60818C490707D501684A680123B4
:102DA0009B049A43036B1A434A60818C090707D539
:102DB00001684A680123DB039A43436B1A434A6064
:102DC000818CC90607D50268916801231B039943CA
:102DD000836B19439160818C890607D501688A68E5
:102DE00001235B039A43C36B1A438A60818C4906B3
:102DF00012D503685A6801210905046C8A432243ED
:102E00005A60026C8A4207D10268516803235B054D
:102E10009943436C19435160818C090607D50168B9
:102E20004A680123DB04806C9A4302434A6010BD68
:102E3000FEB507460025803704467D60FFF71EF883
:102E4000019020680068264600076036002819DADD
:102E5000274800900121002249052046019B00F0EF
:102E600065FA00280ED0EFF31080012181F310885D
:102E700021680A6880239A430A6080F31088202022
:102E8000E06729E020680068400728D518480090CE
:102E90000121002289052046019B00F047FA002805
:102EA0001DD0EFF31080012181F3108821680A689A
:102EB000FF2321339A430A6080F31088EFF31080D8
:102EC000012181F3108821688A68520852008A60C3
:102ED00080F310882020386035760320FEBD202046
:102EE000E06738602566656635760020FEBD000027
:102EF000FFFFFF0110B5406A0022014640314A83BE
:102F00004A82FFF7E4FB10BD10B5EFF310810122F8
:102F100082F3108802681368FF242134A3431360EE
:102F200081F31088EFF31081012282F31088026888
:102F300093685B085B00936081F31088016E012940
:102F40000BD1EFF31081012282F31088026813681D
:102F50001024A343136081F31088202280210A509B
:102F600000210166816610BD70B5014640310346FF
:102F700080338C8B1D680268222D04D09069082153
:102F80000843906170BD928C456D22402A80426D4D
:102F9000921C42654A8B521E4A834A8B002AF1D109
:102FA000EFF31082012484F3108804682568FF265B
:102FB0002136B543256082F31088EFF31082012497
:102FC00084F310880468A5686D086D00A56082F31D
:102FD000108820221A6000238366436604686268B2
:102FE00012020BD5EFF31082012585F310882568B6
:102FF0000126B606B543256082F31088026E012AC9
:1030000002D0FFF74DFD70BD0366EFF31082012380
:1030100083F310880468256810239D43256082F39C
:1030200010880268D469E443E40600D41362098B73
:10303000FFF734FB70BD70B5014640310346803365
:103040008C8B1D680268222D04D0906908210843EA
:10305000906170BD928C2240446D2270426D521C72
:1030600042654A8B521E4A834A8B002AF1D1EFF304
:103070001082012484F3108804682568FF26213615
:10308000B543256082F31088EFF31082012484F3A6
:1030900010880468A5686D086D00A56082F310882B
:1030A00020221A6000238366436604686268120265
:1030B0000BD5EFF31082012585F3108825680126D2
:1030C000B606B543256082F31088026E012A02D04D
:1030D000FFF7E6FC70BD0366EFF31082012383F374
:1030E00010880468256810239D43256082F31088AA
:1030F0000268D469E443E40600D41362098BFFF745
:10310000CDFA70BD70B5044680682169E269084354
:10311000616900251143226808431168494B194031
:103120000143116020684168032212039143E26861
:1031300011434160A169206A2268084391680B230A
:103140001B029943014391603F4A20683F499042E6
:103150000AD1086B8007800F22D0012816D00228E0
:1031600016D003281ED10FE0394A904212D1096BC4
:1031700003200004014016D001200004091A05D0E4
:10318000091A05D081420DD102210CE004210AE088
:10319000082108E02F49884202D02F49884201D1F6
:1031A000002100E010210120E369C0032B4A2C4ECE
:1031B000834222D1002906D0022907D0042907D052
:1031C000082935D108E0FEF7D5FF03E0104603E0FB
:1031D000FEF7E0FF002830D0616840004A08801800
:1031E000FDF748FA01461039B14221D81C49491C63
:1031F00001400007400F08431DE0002906D00229C6
:1032000007D0042907D0082912D108E0FEF7B2FF41
:1032100003E0104603E0FEF7BDFF00280DD0616813
:103220004A081018FDF726FA01461039B14201D9B3
:10323000012502E080B22168C8600020A066E06637
:10324000284670BDF369FFEF0038014000100240CE
:103250000044004000480040004C004000127A004A
:10326000EFFF000070B54165014640310A834A8393
:1032700000238366012284681203FF25944204D14F
:103280000469002C13D1264C0AE07F26002C09D0BB
:1032900001252D07AC420CD10469002C05D03F2438
:1032A0008C8307E00469002C01D08E8302E08D83BB
:1032B00000E08B83014680314B6022230B60EFF3EB
:1032C0001081012383F3108803689C6801252C4337
:1032D0009C6081F310888168914202D101690029C4
:1032E0000ED010498166016900290BD0EFF31081DF
:1032F000012282F3108800680268FF23213309E06D
:1033000009498166EFF31081012282F31088006879
:10331000026820231A43026081F31088002070BDE8
:10332000FF01000037300008692F0008FFB506468E
:1033300081B080360546044660350A9F2EE0781C31
:103340002CD0FEF79BFD0499401AB84214D8002FE8
:1033500012D020680168490720D5C169C94309070F
:103360000CD4082707622046FFF7CEFD77600020C7
:103370002876012005B0F0BD0320FBE7C069C043FB
:1033800000050BD401202168C00208622046FFF727
:10339000BBFD2020706000202876EDE72068C16921
:1033A0000298884305D0002103988142C7D00020AD
:1033B000E0E70121F8E7000010B50248FFF788F9BF
:1033C00010BD00006C02002010B50248FFF780F924
:1033D00010BD0000F4020020F8B5040C8BB22646A4
:1033E00082B25E430D0C1046370C584336048019E8
:1033F0000021794116466E43370C36048019794115
:1034000026466E438919F8BD4900CA0202431000DE
:1034100000D004204A0D01D001221043044A490D76
:10342000914201D102210843012800D105207047B3
:10343000FF0700008307FF22DB0E9A408907090E71
:103440009940002808DB830809489B001B1818686E
:1034500090430843186070470007000F083883083E
:1034600004489B001B18D86990430843D8617047F3
:1034700000E400E000ED00E030380A2801D201202D
:1034800070470020704700000FB400B5FDB0FF2169
:10349000F5316846FDF7ECF87FAA68467E99FCF79F
:1034A0007DFF6846FDF7A4F882B27D23DB00694604
:1034B0000348FFF7F6FA7DB008BC04B018470000D7
:1034C0006C02002070B50122084D140321462846E5
:1034D000FEF7CEFCC820FEF7DFFB0022214628467F
:1034E000FEF7C6FCC820FEF7D7FB70BD00080048F9
:1034F00008B51A20694600250870FEF7CDFCFFF7D5
:10350000F7FBFFF731FBFFF75DFBFFF777FB90A0C1
:10351000FFF7BAFFFFF7D6FF93A0FFF7B5FFFF262F
:10352000F53631469448FDF7A3F832469249934860
:10353000FFF77EF892A193A0FFF780FB3046FEF7DD
:10354000ABFB8FA191A0FFF779FB3046FEF7A4FB00
:103550008BA190A0FFF772FBB4002046FEF79CFB06
:103560008FA191A0FFF76AFB2046FEF795FB8CA187
:103570008DA0FFF763FB2046FEF78EFB88A18AA093
:10358000FFF75CFB2046FEF787FB85A186A0FFF7CF
:1035900055FB2046FEF780FB86A188A0FFF74EFB77
:1035A0002046FEF779FB88A189A0FFF747FB20465C
:1035B000FEF772FB89A18BA0FFF740FB2046FEF7C8
:1035C0006BFB6FA18AA0FFF739FB2046FEF764FB77
:1035D0006BA18FA0FFF732FB2046FEF75DFB68A1D1
:1035E0008FA0FFF72BFB2046FEF756FB90A193A080
:1035F000FFF724FB2046FEF74FFB60486421EC38C0
:10360000FDF736F85D4891A1EC38FCF7D9FE5B4830
:10361000EC38FCF7EDFF594982B26310EC3957489A
:10362000FFF73FFA8D4F3846FEF736FB54A18CA0CA
:10363000FFF704FBC820FEF72FFB8DA18FA0FFF73B
:10364000FDFA2046FEF728FB89A190A0FFF7F6FAC5
:103650002046FEF721FB86A188A0FFF7EFFA20465F
:10366000FEF71AFB92A19548FFF7E8FA2046FEF70D
:1036700013FB8FA192A0FFF7E1FA3846FEF70CFB8F
:1036800093A196A0FFF7DAFA3046FEF705FB9AA160
:103690009AA0FFF7D3FA3046FEF7FEFA37486421C6
:1036A000EC38FCF7E5FF35489CA1EC38FCF788FEC8
:1036B0003248EC38FCF79CFF304982B26310EC3999
:1036C0002E48FFF7EEF96310012269462B48FFF7F9
:1036D000E8F9984C002798A12748FCF775FF0028C7
:1036E00018D02078012815D1234995A0FFF7CCFEEA
:1036F0006D1CEDB2032D0CD121A193A0FFF79EFA12
:103700007D204001FEF7C8FA1DA191A0FFF796FAAF
:103710000025277090A11848FCF756FF0028207854
:1037200006D001280FD1144985A0FFF7ADFE09E0AE
:10373000012808D1104982A0FFF7A6FE31460E48A5
:10374000FCF796FF27700A20FEF7A6FAC3E70000F1
:1037500047534D2054657374696E672044656D6FDF
:103760002E2E2E0D0A00000047534D20496E69741D
:103770002E2E2E0D0A00000014000020F40200205E
:103780004F4B000041540D0A000000004154490D08
:103790000A00000041542B4350494E3F0D0A0000DF
:1037A0002B435245473A000041542B435245473F73
:1037B0000D0A00002B4353513A00000041542B43A3
:1037C00053510D0A000000002B4342433A00000011
:1037D00041542B4342430D0A000000002B434F503D
:1037E000533A000041542B434F50533F0D0A000001
:1037F00041542B434744434F4E543D312C224950B2
:10380000222C22696E7465726E6574220D0A0000A6
:1038100041542B43474143543D312C310D0A0000A4
:1038200041542B43474154543D310D0A00000000E0
:103830002B434750414444523A00000041542B432B
:103840004750414444523D310D0A000041542B5130
:10385000494C4F4349500D0A0000000088130000F6
:1038600041542B514D54444953433D300D0A0000FF
:103870002B514D544F50454E3A00000041542B51AE
:103880004D544F50454E3F0D0A00000041542B51FE
:103890004D544F50454E3D302C2236352E322E3170
:1038A00030372E323234222C383035310D0A0000B8
:1038B0002B514D54434F4E4E3A000000103B000830
:1038C00041542B514D54434F4E4E3F0D0A000000C2
:1038D0002B514D545355423A0000000041542B5196
:1038E0004D545355423D302C312C22546573745342
:1038F0007562222C300D0A003E00000041542B510D
:103900004D545055423D302C302C302C302C22540C
:10391000657374507562220D0A00000048656C6C76
:103920006F2066726F6D2053544D33325F47534D95
:10393000000000000000002052494E470000000037
:103940005258203A202573004154410D0A000000CE
:103950004154480D0A00000053454E44204F4B008F
:1039600010B500290AD00878002807D00548784407
:10397000FEF702F9002801D0002010BD024878446B
:1039800010BD00000A0200000202000010B500296C
:103990000AD00878002807D005487844FEF7ECF8EC
:1039A000002801D0002010BD0248784410BD00005E
:1039B000FA010000F201000003B402487844844692
:1039C00003BC604783D4FFFF03B4024878448446B5
:1039D00003BC6047EDD6FFFF020304050607080994
:1039E0000A0B0C0D0E0F1010010203040506070848
:1039F000090A0B0C0D0E0F10000000000000000063
:103A00000102030406070809000000000102030484
:103A10000400000800000000000000020001000097
:103A200010000000000000000000000030313233C0
:103A300034353637383941424344454640305800E2
:103A40003031323334353637383961626364656614
:103A500040307800303132333435363738396162AE
:103A60006364656678700030313233343536373808
:103A7000394142434445465850000000024000008E
:103A8000000000A00000000005400000000000C889
:103A9000000000000C4000000000409C00000000FE
:103AA000194000000020BCBE0000000034400000AF
:103AB000BFC91B8E00000004B5400000504BCFD0A2
:103AC0006607E2CF010000006C4100003E8251AA6F
:103AD000DFEEA73401000000D9420000DCB5A0E20F
:103AE0003A301F97FFFFFFFFB4450000FD25A0C837
:103AF000E9A3C14FFFFFFFFFFF3F00000000008070
:103B000000000000FF3F00000000008000000000F7
:103B100041542B514D54434F4E4E3D302C224D714C
:103B20007174436C69656E74222C225265736F6EDA
:103B3000656E744C6F6F6D734D6F6E69746F72222A
:103B40002C2275486A6855714E357A624F35564B4E
:103B500063220D0A00000000A43C000800000020C1
:103B60001400000004010008B83C00081400002004
:103B7000CC090000200100081C00000043000000E8
:103B8000F8FFFFFF0C0000000E0000000F00000017
:103B90002E0000001001000043000000F8FFFFFFAE
:103BA0000040404040404040404041414141414050
:103BB0004040404040404040404040404040404005
:103BC0004005020202020202020202020202020294
:103BD0000220202020202020202020020202020299
:103BE00002029090909090901010101010101010F1
:103BF00010101010101010101010101002020202FD
:103C00000202888888888888080808080808080840
:103C1000080808080808080808080808020202023C
:103C20004000000000000000000000000000000054
:103C30000000000000000000000000000000000084
:103C40000000000000000000000000000000000074
:103C50000000000000000000000000000000000064
:103C60000000000000000000000000000000000054
:103C70000000000000000000000000000000000044
:103C80000000000000000000000000000000000034
:103C90000000000000000000000000000000000024
:103CA000000000000000000001000000040000000F
:083CB0000000000000127A0080
:04000005080000C12E
:00000001FF
